{
  "_format": "hh-sol-artifact-1",
  "contractName": "NFTMinter",
  "sourceName": "contracts/NftMinter.sol",
  "abi": [
    {
      "inputs": [],
      "stateMutability": "nonpayable",
      "type": "constructor"
    },
    {
      "inputs": [],
      "name": "fetchAllNfts",
      "outputs": [
        {
          "internalType": "uint256[]",
          "name": "",
          "type": "uint256[]"
        }
      ],
      "stateMutability": "view",
      "type": "function"
    },
    {
      "inputs": [
        {
          "internalType": "address",
          "name": "_user",
          "type": "address"
        }
      ],
      "name": "fetchUserNfts",
      "outputs": [
        {
          "internalType": "uint256[]",
          "name": "",
          "type": "uint256[]"
        }
      ],
      "stateMutability": "view",
      "type": "function"
    },
    {
      "inputs": [
        {
          "internalType": "uint256",
          "name": "_tokenId",
          "type": "uint256"
        }
      ],
      "name": "getTokenURI",
      "outputs": [
        {
          "internalType": "string",
          "name": "",
          "type": "string"
        }
      ],
      "stateMutability": "view",
      "type": "function"
    },
    {
      "inputs": [
        {
          "internalType": "address",
          "name": "_to",
          "type": "address"
        },
        {
          "internalType": "string",
          "name": "_tokenURI",
          "type": "string"
        }
      ],
      "name": "mintNft",
      "outputs": [
        {
          "internalType": "uint256",
          "name": "",
          "type": "uint256"
        }
      ],
      "stateMutability": "nonpayable",
      "type": "function"
    },
    {
      "inputs": [],
      "name": "owner",
      "outputs": [
        {
          "internalType": "address",
          "name": "",
          "type": "address"
        }
      ],
      "stateMutability": "view",
      "type": "function"
    },
    {
      "inputs": [],
      "name": "tokenCounter",
      "outputs": [
        {
          "internalType": "uint256",
          "name": "",
          "type": "uint256"
        }
      ],
      "stateMutability": "view",
      "type": "function"
    },
    {
      "inputs": [
        {
          "internalType": "uint256",
          "name": "",
          "type": "uint256"
        }
      ],
      "name": "tokenOwners",
      "outputs": [
        {
          "internalType": "address",
          "name": "",
          "type": "address"
        }
      ],
      "stateMutability": "view",
      "type": "function"
    },
    {
      "inputs": [
        {
          "internalType": "uint256",
          "name": "",
          "type": "uint256"
        }
      ],
      "name": "tokenURIs",
      "outputs": [
        {
          "internalType": "string",
          "name": "",
          "type": "string"
        }
      ],
      "stateMutability": "view",
      "type": "function"
    },
    {
      "inputs": [
        {
          "internalType": "address",
          "name": "",
          "type": "address"
        },
        {
          "internalType": "uint256",
          "name": "",
          "type": "uint256"
        }
      ],
      "name": "userNFTs",
      "outputs": [
        {
          "internalType": "uint256",
          "name": "",
          "type": "uint256"
        }
      ],
      "stateMutability": "view",
      "type": "function"
    }
  ],
  "bytecode": "0x608060405234801561001057600080fd5b50336000806101000a81548173ffffffffffffffffffffffffffffffffffffffff021916908373ffffffffffffffffffffffffffffffffffffffff1602179055506000600181905550610e1d806100686000396000f3fe608060405234801561001057600080fd5b50600436106100935760003560e01c80636f820c0b116100665780636f820c0b146101585780638da5cb5b14610176578063d082e38114610194578063e5673e4e146101b2578063f8a14f46146101e257610093565b806311f87b1914610098578063291c73c3146100c85780633bb3a24d146100f85780636c8b703f14610128575b600080fd5b6100b260048036038101906100ad919061089d565b610212565b6040516100bf9190610b51565b60405180910390f35b6100e260048036038101906100dd91906108f1565b6103ac565b6040516100ef9190610b51565b60405180910390f35b610112600480360381019061010d919061092d565b6103dd565b60405161011f9190610aef565b60405180910390f35b610142600480360381019061013d919061092d565b6104c6565b60405161014f9190610aef565b60405180910390f35b610160610566565b60405161016d9190610acd565b60405180910390f35b61017e61064b565b60405161018b9190610ab2565b60405180910390f35b61019c61066f565b6040516101a99190610b51565b60405180910390f35b6101cc60048036038101906101c79190610874565b610675565b6040516101d99190610acd565b60405180910390f35b6101fc60048036038101906101f7919061092d565b61070c565b6040516102099190610ab2565b60405180910390f35b60008060009054906101000a900473ffffffffffffffffffffffffffffffffffffffff1673ffffffffffffffffffffffffffffffffffffffff163373ffffffffffffffffffffffffffffffffffffffff16146102a3576040517f08c379a000000000000000000000000000000000000000000000000000000000815260040161029a90610b11565b60405180910390fd5b60006001549050836003600083815260200190815260200160002060006101000a81548173ffffffffffffffffffffffffffffffffffffffff021916908373ffffffffffffffffffffffffffffffffffffffff1602179055508260046000838152602001908152602001600020908051906020019061032392919061073f565b50600260008573ffffffffffffffffffffffffffffffffffffffff1673ffffffffffffffffffffffffffffffffffffffff1681526020019081526020016000208190806001815401808255809150506001900390600052602060002001600090919091909150556001600081548092919061039d90610cd2565b91905055508091505092915050565b600260205281600052604060002081815481106103c857600080fd5b90600052602060002001600091509150505481565b60606001548210610423576040517f08c379a000000000000000000000000000000000000000000000000000000000815260040161041a90610b31565b60405180910390fd5b60046000838152602001908152602001600020805461044190610ca0565b80601f016020809104026020016040519081016040528092919081815260200182805461046d90610ca0565b80156104ba5780601f1061048f576101008083540402835291602001916104ba565b820191906000526020600020905b81548152906001019060200180831161049d57829003601f168201915b50505050509050919050565b600460205280600052604060002060009150905080546104e590610ca0565b80601f016020809104026020016040519081016040528092919081815260200182805461051190610ca0565b801561055e5780601f106105335761010080835404028352916020019161055e565b820191906000526020600020905b81548152906001019060200180831161054157829003601f168201915b505050505081565b6060600060015467ffffffffffffffff8111156105ac577f4e487b7100000000000000000000000000000000000000000000000000000000600052604160045260246000fd5b6040519080825280602002602001820160405280156105da5781602001602082028036833780820191505090505b50905060005b6001548110156106435780828281518110610624577f4e487b7100000000000000000000000000000000000000000000000000000000600052603260045260246000fd5b602002602001018181525050808061063b90610cd2565b9150506105e0565b508091505090565b60008054906101000a900473ffffffffffffffffffffffffffffffffffffffff1681565b60015481565b6060600260008373ffffffffffffffffffffffffffffffffffffffff1673ffffffffffffffffffffffffffffffffffffffff16815260200190815260200160002080548060200260200160405190810160405280929190818152602001828054801561070057602002820191906000526020600020905b8154815260200190600101908083116106ec575b50505050509050919050565b60036020528060005260406000206000915054906101000a900473ffffffffffffffffffffffffffffffffffffffff1681565b82805461074b90610ca0565b90600052602060002090601f01602090048101928261076d57600085556107b4565b82601f1061078657805160ff19168380011785556107b4565b828001600101855582156107b4579182015b828111156107b3578251825591602001919060010190610798565b5b5090506107c191906107c5565b5090565b5b808211156107de5760008160009055506001016107c6565b5090565b60006107f56107f084610b9d565b610b6c565b90508281526020810184848401111561080d57600080fd5b610818848285610c5e565b509392505050565b60008135905061082f81610db9565b92915050565b600082601f83011261084657600080fd5b81356108568482602086016107e2565b91505092915050565b60008135905061086e81610dd0565b92915050565b60006020828403121561088657600080fd5b600061089484828501610820565b91505092915050565b600080604083850312156108b057600080fd5b60006108be85828601610820565b925050602083013567ffffffffffffffff8111156108db57600080fd5b6108e785828601610835565b9150509250929050565b6000806040838503121561090457600080fd5b600061091285828601610820565b92505060206109238582860161085f565b9150509250929050565b60006020828403121561093f57600080fd5b600061094d8482850161085f565b91505092915050565b60006109628383610a94565b60208301905092915050565b61097781610c22565b82525050565b600061098882610bdd565b6109928185610c00565b935061099d83610bcd565b8060005b838110156109ce5781516109b58882610956565b97506109c083610bf3565b9250506001810190506109a1565b5085935050505092915050565b60006109e682610be8565b6109f08185610c11565b9350610a00818560208601610c6d565b610a0981610da8565b840191505092915050565b6000610a21601883610c11565b91507f4f6e6c79206f776e65722063616e206d696e74204e46547300000000000000006000830152602082019050919050565b6000610a61601083610c11565b91507f496e76616c696420746f6b656e204944000000000000000000000000000000006000830152602082019050919050565b610a9d81610c54565b82525050565b610aac81610c54565b82525050565b6000602082019050610ac7600083018461096e565b92915050565b60006020820190508181036000830152610ae7818461097d565b905092915050565b60006020820190508181036000830152610b0981846109db565b905092915050565b60006020820190508181036000830152610b2a81610a14565b9050919050565b60006020820190508181036000830152610b4a81610a54565b9050919050565b6000602082019050610b666000830184610aa3565b92915050565b6000604051905081810181811067ffffffffffffffff82111715610b9357610b92610d79565b5b8060405250919050565b600067ffffffffffffffff821115610bb857610bb7610d79565b5b601f19601f8301169050602081019050919050565b6000819050602082019050919050565b600081519050919050565b600081519050919050565b6000602082019050919050565b600082825260208201905092915050565b600082825260208201905092915050565b6000610c2d82610c34565b9050919050565b600073ffffffffffffffffffffffffffffffffffffffff82169050919050565b6000819050919050565b82818337600083830152505050565b60005b83811015610c8b578082015181840152602081019050610c70565b83811115610c9a576000848401525b50505050565b60006002820490506001821680610cb857607f821691505b60208210811415610ccc57610ccb610d4a565b5b50919050565b6000610cdd82610c54565b91507fffffffffffffffffffffffffffffffffffffffffffffffffffffffffffffffff821415610d1057610d0f610d1b565b5b600182019050919050565b7f4e487b7100000000000000000000000000000000000000000000000000000000600052601160045260246000fd5b7f4e487b7100000000000000000000000000000000000000000000000000000000600052602260045260246000fd5b7f4e487b7100000000000000000000000000000000000000000000000000000000600052604160045260246000fd5b6000601f19601f8301169050919050565b610dc281610c22565b8114610dcd57600080fd5b50565b610dd981610c54565b8114610de457600080fd5b5056fea26469706673582212209557d1b3880f716e22c858ef1f73685995499a115f9773e956e9f6a720df755164736f6c63430008000033",
  "linkReferences": {},
  "deployedLinkReferences": {}
}